{
  "contractName": "Seller",
  "abi": [
    {
      "inputs": [],
      "stateMutability": "nonpayable",
      "type": "constructor"
    },
    {
      "inputs": [
        {
          "internalType": "uint256",
          "name": "",
          "type": "uint256"
        }
      ],
      "name": "productStructs",
      "outputs": [
        {
          "internalType": "uint256",
          "name": "id",
          "type": "uint256"
        },
        {
          "internalType": "string",
          "name": "productName",
          "type": "string"
        },
        {
          "internalType": "address",
          "name": "productManufacturer",
          "type": "address"
        },
        {
          "internalType": "address",
          "name": "productOwner",
          "type": "address"
        },
        {
          "internalType": "uint256",
          "name": "productQuantity",
          "type": "uint256"
        },
        {
          "internalType": "address",
          "name": "fromPath",
          "type": "address"
        },
        {
          "internalType": "string",
          "name": "qrCode",
          "type": "string"
        }
      ],
      "stateMutability": "view",
      "type": "function"
    },
    {
      "inputs": [],
      "name": "getLength",
      "outputs": [
        {
          "internalType": "uint256",
          "name": "",
          "type": "uint256"
        }
      ],
      "stateMutability": "view",
      "type": "function"
    },
    {
      "inputs": [
        {
          "internalType": "string",
          "name": "_productName",
          "type": "string"
        },
        {
          "internalType": "uint256",
          "name": "_productQuantity",
          "type": "uint256"
        }
      ],
      "name": "insertProduct",
      "outputs": [
        {
          "internalType": "uint256",
          "name": "",
          "type": "uint256"
        }
      ],
      "stateMutability": "nonpayable",
      "type": "function"
    },
    {
      "inputs": [
        {
          "internalType": "uint256",
          "name": "_productId",
          "type": "uint256"
        }
      ],
      "name": "sendProduct",
      "outputs": [],
      "stateMutability": "nonpayable",
      "type": "function"
    }
  ],
  "bytecode": "0x6080604052600160025534801561001557600080fd5b50610d53806100256000396000f3fe608060405234801561001057600080fd5b506004361061004c5760003560e01c806324df201e146100515780632fb1ad101461006d578063627ef292146100a3578063be1c766b146100d3575b600080fd5b61006b600480360381019061006691906105fb565b6100f1565b005b610087600480360381019061008291906105fb565b61023d565b60405161009a9796959493929190610708565b60405180910390f35b6100bd60048036038101906100b891906108ba565b6103ef565b6040516100ca9190610916565b60405180910390f35b6100db6105a4565b6040516100e89190610916565b60405180910390f35b60005b60008083815260200190815260200160002060060180549050811015610239573373ffffffffffffffffffffffffffffffffffffffff1660008084815260200190815260200160002060030160009054906101000a900473ffffffffffffffffffffffffffffffffffffffff1673ffffffffffffffffffffffffffffffffffffffff161461018157600080fd5b60008083815260200190815260200160002060060181815481106101a8576101a7610931565b5b9060005260206000200160009054906101000a900473ffffffffffffffffffffffffffffffffffffffff1660008084815260200190815260200160002060030160006101000a81548173ffffffffffffffffffffffffffffffffffffffff021916908373ffffffffffffffffffffffffffffffffffffffff16021790555080806102319061098f565b9150506100f4565b5050565b600060205280600052604060002060009150905080600001549080600101805461026690610a06565b80601f016020809104026020016040519081016040528092919081815260200182805461029290610a06565b80156102df5780601f106102b4576101008083540402835291602001916102df565b820191906000526020600020905b8154815290600101906020018083116102c257829003601f168201915b5050505050908060020160009054906101000a900473ffffffffffffffffffffffffffffffffffffffff16908060030160009054906101000a900473ffffffffffffffffffffffffffffffffffffffff16908060040154908060050160009054906101000a900473ffffffffffffffffffffffffffffffffffffffff169080600701805461036c90610a06565b80601f016020809104026020016040519081016040528092919081815260200182805461039890610a06565b80156103e55780601f106103ba576101008083540402835291602001916103e5565b820191906000526020600020905b8154815290600101906020018083116103c857829003601f168201915b5050505050905087565b6000735b38da6a701c568545dcfcb03fcb875f56beddc473ffffffffffffffffffffffffffffffffffffffff163373ffffffffffffffffffffffffffffffffffffffff161461043d57600080fd5b82600080600254815260200190815260200160002060010190816104619190610be3565b5033600080600254815260200190815260200160002060030160006101000a81548173ffffffffffffffffffffffffffffffffffffffff021916908373ffffffffffffffffffffffffffffffffffffffff16021790555033600080600254815260200190815260200160002060020160006101000a81548173ffffffffffffffffffffffffffffffffffffffff021916908373ffffffffffffffffffffffffffffffffffffffff1602179055508160008060025481526020019081526020016000206004018190555060016002549080600181540180825580915050600190039060005260206000200160009091909190915055600180805490506105669190610cb5565b60008060025481526020019081526020016000206000018190555060016002546105909190610ce9565b600281905550600180549050905092915050565b6000600180549050905090565b6000604051905090565b600080fd5b600080fd5b6000819050919050565b6105d8816105c5565b81146105e357600080fd5b50565b6000813590506105f5816105cf565b92915050565b600060208284031215610611576106106105bb565b5b600061061f848285016105e6565b91505092915050565b610631816105c5565b82525050565b600081519050919050565b600082825260208201905092915050565b60005b83811015610671578082015181840152602081019050610656565b60008484015250505050565b6000601f19601f8301169050919050565b600061069982610637565b6106a38185610642565b93506106b3818560208601610653565b6106bc8161067d565b840191505092915050565b600073ffffffffffffffffffffffffffffffffffffffff82169050919050565b60006106f2826106c7565b9050919050565b610702816106e7565b82525050565b600060e08201905061071d600083018a610628565b818103602083015261072f818961068e565b905061073e60408301886106f9565b61074b60608301876106f9565b6107586080830186610628565b61076560a08301856106f9565b81810360c0830152610777818461068e565b905098975050505050505050565b600080fd5b600080fd5b7f4e487b7100000000000000000000000000000000000000000000000000000000600052604160045260246000fd5b6107c78261067d565b810181811067ffffffffffffffff821117156107e6576107e561078f565b5b80604052505050565b60006107f96105b1565b905061080582826107be565b919050565b600067ffffffffffffffff8211156108255761082461078f565b5b61082e8261067d565b9050602081019050919050565b82818337600083830152505050565b600061085d6108588461080a565b6107ef565b9050828152602081018484840111156108795761087861078a565b5b61088484828561083b565b509392505050565b600082601f8301126108a1576108a0610785565b5b81356108b184826020860161084a565b91505092915050565b600080604083850312156108d1576108d06105bb565b5b600083013567ffffffffffffffff8111156108ef576108ee6105c0565b5b6108fb8582860161088c565b925050602061090c858286016105e6565b9150509250929050565b600060208201905061092b6000830184610628565b92915050565b7f4e487b7100000000000000000000000000000000000000000000000000000000600052603260045260246000fd5b7f4e487b7100000000000000000000000000000000000000000000000000000000600052601160045260246000fd5b600061099a826105c5565b91507fffffffffffffffffffffffffffffffffffffffffffffffffffffffffffffffff82036109cc576109cb610960565b5b600182019050919050565b7f4e487b7100000000000000000000000000000000000000000000000000000000600052602260045260246000fd5b60006002820490506001821680610a1e57607f821691505b602082108103610a3157610a306109d7565b5b50919050565b60008190508160005260206000209050919050565b60006020601f8301049050919050565b600082821b905092915050565b600060088302610a997fffffffffffffffffffffffffffffffffffffffffffffffffffffffffffffffff82610a5c565b610aa38683610a5c565b95508019841693508086168417925050509392505050565b6000819050919050565b6000610ae0610adb610ad6846105c5565b610abb565b6105c5565b9050919050565b6000819050919050565b610afa83610ac5565b610b0e610b0682610ae7565b848454610a69565b825550505050565b600090565b610b23610b16565b610b2e818484610af1565b505050565b5b81811015610b5257610b47600082610b1b565b600181019050610b34565b5050565b601f821115610b9757610b6881610a37565b610b7184610a4c565b81016020851015610b80578190505b610b94610b8c85610a4c565b830182610b33565b50505b505050565b600082821c905092915050565b6000610bba60001984600802610b9c565b1980831691505092915050565b6000610bd38383610ba9565b9150826002028217905092915050565b610bec82610637565b67ffffffffffffffff811115610c0557610c0461078f565b5b610c0f8254610a06565b610c1a828285610b56565b600060209050601f831160018114610c4d5760008415610c3b578287015190505b610c458582610bc7565b865550610cad565b601f198416610c5b86610a37565b60005b82811015610c8357848901518255600182019150602085019450602081019050610c5e565b86831015610ca05784890151610c9c601f891682610ba9565b8355505b6001600288020188555050505b505050505050565b6000610cc0826105c5565b9150610ccb836105c5565b9250828203905081811115610ce357610ce2610960565b5b92915050565b6000610cf4826105c5565b9150610cff836105c5565b9250828201905080821115610d1757610d16610960565b5b9291505056fea26469706673582212204561eb376066c54bb8ad24071e95a7cc3df63d3d94d833dee87b83da6bf927c064736f6c63430008110033",
  "immutableReferences": {},
  "source": "//SPDX-License-Identifier: GPL-3.0\r\npragma solidity >=0.5.0 <0.9.0;\r\n\r\ncontract Seller{\r\n    constructor() {\r\n\r\n    }\r\n\r\n    struct Product {\r\n        uint id;\r\n        string productName;\r\n        address productManufacturer;\r\n        address productOwner;\r\n        uint productQuantity;\r\n        address fromPath;\r\n        address[] toPath;\r\n        string qrCode;\r\n    }\r\n\r\n    mapping (uint => Product) public productStructs; //information about the products\r\n    uint[] private productList; // the products' ids\r\n    uint private productCount = 1; // to keep track of the products ids\r\n\r\n    \r\n    function getLength() public view returns(uint){\r\n        return productList.length;\r\n    }\r\n\r\n\r\n    function insertProduct(string memory _productName, uint _productQuantity) public returns(uint) {\r\n        require(msg.sender == 0x5B38Da6a701c568545dCfcB03FcB875f56beddC4);\r\n        productStructs[productCount].productName = _productName;\r\n        productStructs[productCount].productOwner = msg.sender;\r\n        productStructs[productCount].productManufacturer = msg.sender;\r\n        productStructs[productCount].productQuantity = _productQuantity;\r\n        // productStructs[productCount].fromPath\r\n        // productStructs[productCount].toPath = new address[](16);\r\n        productList.push(productCount);\r\n\r\n        productStructs[productCount].id = productList.length - 1;\r\n        productCount = productCount + 1;  \r\n        return productList.length;\r\n    }\r\n\r\n    function sendProduct(uint _productId) public{\r\n        for(uint i=0; i<productStructs[_productId].toPath.length; i++){\r\n            require(productStructs[_productId].productOwner == msg.sender);\r\n            productStructs[_productId].productOwner = productStructs[_productId].toPath[i];\r\n        }\r\n        // return productStructs[_productId].productOwner;\r\n    } \r\n\r\n}\r\n\r\ncontract Buyer is Seller{\r\n    function checkOwner(uint _productId) public view returns(address){\r\n        return productStructs[_productId].productOwner;\r\n    }\r\n\r\n    // function checkProduct(uint _productId, string memory _qrCode) public pure returns(bool){\r\n    //     require(productStructs[_productId].qrCode = _qrCode);\r\n    //     return true;\r\n    // }\r\n\r\n    function buyProduct(uint _productId) public {\r\n        // require(checkProduct(_productId));\r\n        productStructs[_productId].toPath.push(msg.sender);\r\n    }\r\n}",
  "sourcePath": "C:\\Users\\nitrr\\OneDrive\\Desktop\\demo_mp\\demo\\contracts\\test.sol",
  "compiler": {
    "name": "solc",
    "version": "0.8.17+commit.8df45f5f.Emscripten.clang"
  },
  "schemaVersion": "3.4.10",
  "updatedAt": "2022-10-28T17:40:33.139Z",
  "devdoc": {
    "kind": "dev",
    "methods": {},
    "version": 1
  },
  "userdoc": {
    "kind": "user",
    "methods": {},
    "version": 1
  }
}