{
  "contractName": "Buyer",
  "abi": [
    {
      "inputs": [],
      "name": "getLength",
      "outputs": [
        {
          "internalType": "uint256",
          "name": "",
          "type": "uint256"
        }
      ],
      "stateMutability": "view",
      "type": "function"
    },
    {
      "inputs": [
        {
          "internalType": "string",
          "name": "_productName",
          "type": "string"
        },
        {
          "internalType": "uint256",
          "name": "_productQuantity",
          "type": "uint256"
        }
      ],
      "name": "insertProduct",
      "outputs": [
        {
          "internalType": "uint256",
          "name": "",
          "type": "uint256"
        }
      ],
      "stateMutability": "nonpayable",
      "type": "function"
    },
    {
      "inputs": [
        {
          "internalType": "uint256",
          "name": "",
          "type": "uint256"
        }
      ],
      "name": "productStructs",
      "outputs": [
        {
          "internalType": "uint256",
          "name": "id",
          "type": "uint256"
        },
        {
          "internalType": "string",
          "name": "productName",
          "type": "string"
        },
        {
          "internalType": "address",
          "name": "productManufacturer",
          "type": "address"
        },
        {
          "internalType": "address",
          "name": "productOwner",
          "type": "address"
        },
        {
          "internalType": "uint256",
          "name": "productQuantity",
          "type": "uint256"
        },
        {
          "internalType": "address",
          "name": "fromPath",
          "type": "address"
        },
        {
          "internalType": "string",
          "name": "qrCode",
          "type": "string"
        }
      ],
      "stateMutability": "view",
      "type": "function"
    },
    {
      "inputs": [
        {
          "internalType": "uint256",
          "name": "_productId",
          "type": "uint256"
        }
      ],
      "name": "sendProduct",
      "outputs": [],
      "stateMutability": "nonpayable",
      "type": "function"
    },
    {
      "inputs": [
        {
          "internalType": "uint256",
          "name": "_productId",
          "type": "uint256"
        }
      ],
      "name": "checkOwner",
      "outputs": [
        {
          "internalType": "address",
          "name": "",
          "type": "address"
        }
      ],
      "stateMutability": "view",
      "type": "function"
    },
    {
      "inputs": [
        {
          "internalType": "uint256",
          "name": "_productId",
          "type": "uint256"
        }
      ],
      "name": "buyProduct",
      "outputs": [],
      "stateMutability": "nonpayable",
      "type": "function"
    }
  ],
  "bytecode": "0x6080604052600160025534801561001557600080fd5b50610e88806100256000396000f3fe608060405234801561001057600080fd5b50600436106100625760003560e01c806324df201e146100675780632fb1ad1014610083578063627ef292146100b95780638642269e146100e95780639870dce014610105578063be1c766b14610135575b600080fd5b610081600480360381019061007c9190610715565b610153565b005b61009d60048036038101906100989190610715565b61029f565b6040516100b09796959493929190610822565b60405180910390f35b6100d360048036038101906100ce91906109d4565b610451565b6040516100e09190610a30565b60405180910390f35b61010360048036038101906100fe9190610715565b610606565b005b61011f600480360381019061011a9190610715565b61067f565b60405161012c9190610a4b565b60405180910390f35b61013d6106be565b60405161014a9190610a30565b60405180910390f35b60005b6000808381526020019081526020016000206006018054905081101561029b573373ffffffffffffffffffffffffffffffffffffffff1660008084815260200190815260200160002060030160009054906101000a900473ffffffffffffffffffffffffffffffffffffffff1673ffffffffffffffffffffffffffffffffffffffff16146101e357600080fd5b600080838152602001908152602001600020600601818154811061020a57610209610a66565b5b9060005260206000200160009054906101000a900473ffffffffffffffffffffffffffffffffffffffff1660008084815260200190815260200160002060030160006101000a81548173ffffffffffffffffffffffffffffffffffffffff021916908373ffffffffffffffffffffffffffffffffffffffff160217905550808061029390610ac4565b915050610156565b5050565b60006020528060005260406000206000915090508060000154908060010180546102c890610b3b565b80601f01602080910402602001604051908101604052809291908181526020018280546102f490610b3b565b80156103415780601f1061031657610100808354040283529160200191610341565b820191906000526020600020905b81548152906001019060200180831161032457829003601f168201915b5050505050908060020160009054906101000a900473ffffffffffffffffffffffffffffffffffffffff16908060030160009054906101000a900473ffffffffffffffffffffffffffffffffffffffff16908060040154908060050160009054906101000a900473ffffffffffffffffffffffffffffffffffffffff16908060070180546103ce90610b3b565b80601f01602080910402602001604051908101604052809291908181526020018280546103fa90610b3b565b80156104475780601f1061041c57610100808354040283529160200191610447565b820191906000526020600020905b81548152906001019060200180831161042a57829003601f168201915b5050505050905087565b6000735b38da6a701c568545dcfcb03fcb875f56beddc473ffffffffffffffffffffffffffffffffffffffff163373ffffffffffffffffffffffffffffffffffffffff161461049f57600080fd5b82600080600254815260200190815260200160002060010190816104c39190610d18565b5033600080600254815260200190815260200160002060030160006101000a81548173ffffffffffffffffffffffffffffffffffffffff021916908373ffffffffffffffffffffffffffffffffffffffff16021790555033600080600254815260200190815260200160002060020160006101000a81548173ffffffffffffffffffffffffffffffffffffffff021916908373ffffffffffffffffffffffffffffffffffffffff1602179055508160008060025481526020019081526020016000206004018190555060016002549080600181540180825580915050600190039060005260206000200160009091909190915055600180805490506105c89190610dea565b60008060025481526020019081526020016000206000018190555060016002546105f29190610e1e565b600281905550600180549050905092915050565b600080828152602001908152602001600020600601339080600181540180825580915050600190039060005260206000200160009091909190916101000a81548173ffffffffffffffffffffffffffffffffffffffff021916908373ffffffffffffffffffffffffffffffffffffffff16021790555050565b600080600083815260200190815260200160002060030160009054906101000a900473ffffffffffffffffffffffffffffffffffffffff169050919050565b6000600180549050905090565b6000604051905090565b600080fd5b600080fd5b6000819050919050565b6106f2816106df565b81146106fd57600080fd5b50565b60008135905061070f816106e9565b92915050565b60006020828403121561072b5761072a6106d5565b5b600061073984828501610700565b91505092915050565b61074b816106df565b82525050565b600081519050919050565b600082825260208201905092915050565b60005b8381101561078b578082015181840152602081019050610770565b60008484015250505050565b6000601f19601f8301169050919050565b60006107b382610751565b6107bd818561075c565b93506107cd81856020860161076d565b6107d681610797565b840191505092915050565b600073ffffffffffffffffffffffffffffffffffffffff82169050919050565b600061080c826107e1565b9050919050565b61081c81610801565b82525050565b600060e082019050610837600083018a610742565b818103602083015261084981896107a8565b90506108586040830188610813565b6108656060830187610813565b6108726080830186610742565b61087f60a0830185610813565b81810360c083015261089181846107a8565b905098975050505050505050565b600080fd5b600080fd5b7f4e487b7100000000000000000000000000000000000000000000000000000000600052604160045260246000fd5b6108e182610797565b810181811067ffffffffffffffff82111715610900576108ff6108a9565b5b80604052505050565b60006109136106cb565b905061091f82826108d8565b919050565b600067ffffffffffffffff82111561093f5761093e6108a9565b5b61094882610797565b9050602081019050919050565b82818337600083830152505050565b600061097761097284610924565b610909565b905082815260208101848484011115610993576109926108a4565b5b61099e848285610955565b509392505050565b600082601f8301126109bb576109ba61089f565b5b81356109cb848260208601610964565b91505092915050565b600080604083850312156109eb576109ea6106d5565b5b600083013567ffffffffffffffff811115610a0957610a086106da565b5b610a15858286016109a6565b9250506020610a2685828601610700565b9150509250929050565b6000602082019050610a456000830184610742565b92915050565b6000602082019050610a606000830184610813565b92915050565b7f4e487b7100000000000000000000000000000000000000000000000000000000600052603260045260246000fd5b7f4e487b7100000000000000000000000000000000000000000000000000000000600052601160045260246000fd5b6000610acf826106df565b91507fffffffffffffffffffffffffffffffffffffffffffffffffffffffffffffffff8203610b0157610b00610a95565b5b600182019050919050565b7f4e487b7100000000000000000000000000000000000000000000000000000000600052602260045260246000fd5b60006002820490506001821680610b5357607f821691505b602082108103610b6657610b65610b0c565b5b50919050565b60008190508160005260206000209050919050565b60006020601f8301049050919050565b600082821b905092915050565b600060088302610bce7fffffffffffffffffffffffffffffffffffffffffffffffffffffffffffffffff82610b91565b610bd88683610b91565b95508019841693508086168417925050509392505050565b6000819050919050565b6000610c15610c10610c0b846106df565b610bf0565b6106df565b9050919050565b6000819050919050565b610c2f83610bfa565b610c43610c3b82610c1c565b848454610b9e565b825550505050565b600090565b610c58610c4b565b610c63818484610c26565b505050565b5b81811015610c8757610c7c600082610c50565b600181019050610c69565b5050565b601f821115610ccc57610c9d81610b6c565b610ca684610b81565b81016020851015610cb5578190505b610cc9610cc185610b81565b830182610c68565b50505b505050565b600082821c905092915050565b6000610cef60001984600802610cd1565b1980831691505092915050565b6000610d088383610cde565b9150826002028217905092915050565b610d2182610751565b67ffffffffffffffff811115610d3a57610d396108a9565b5b610d448254610b3b565b610d4f828285610c8b565b600060209050601f831160018114610d825760008415610d70578287015190505b610d7a8582610cfc565b865550610de2565b601f198416610d9086610b6c565b60005b82811015610db857848901518255600182019150602085019450602081019050610d93565b86831015610dd55784890151610dd1601f891682610cde565b8355505b6001600288020188555050505b505050505050565b6000610df5826106df565b9150610e00836106df565b9250828203905081811115610e1857610e17610a95565b5b92915050565b6000610e29826106df565b9150610e34836106df565b9250828201905080821115610e4c57610e4b610a95565b5b9291505056fea264697066735822122031d9599a1a02140b900ad286a36311a09796f11233f4bef7d7433dd2a10af49564736f6c63430008110033",
  "immutableReferences": {},
  "source": "//SPDX-License-Identifier: GPL-3.0\r\npragma solidity >=0.5.0 <0.9.0;\r\n\r\ncontract Seller{\r\n    constructor() {\r\n\r\n    }\r\n\r\n    struct Product {\r\n        uint id;\r\n        string productName;\r\n        address productManufacturer;\r\n        address productOwner;\r\n        uint productQuantity;\r\n        address fromPath;\r\n        address[] toPath;\r\n        string qrCode;\r\n    }\r\n\r\n    mapping (uint => Product) public productStructs; //information about the products\r\n    uint[] private productList; // the products' ids\r\n    uint private productCount = 1; // to keep track of the products ids\r\n\r\n    \r\n    function getLength() public view returns(uint){\r\n        return productList.length;\r\n    }\r\n\r\n\r\n    function insertProduct(string memory _productName, uint _productQuantity) public returns(uint) {\r\n        require(msg.sender == 0x5B38Da6a701c568545dCfcB03FcB875f56beddC4);\r\n        productStructs[productCount].productName = _productName;\r\n        productStructs[productCount].productOwner = msg.sender;\r\n        productStructs[productCount].productManufacturer = msg.sender;\r\n        productStructs[productCount].productQuantity = _productQuantity;\r\n        // productStructs[productCount].fromPath\r\n        // productStructs[productCount].toPath = new address[](16);\r\n        productList.push(productCount);\r\n\r\n        productStructs[productCount].id = productList.length - 1;\r\n        productCount = productCount + 1;  \r\n        return productList.length;\r\n    }\r\n\r\n    function sendProduct(uint _productId) public{\r\n        for(uint i=0; i<productStructs[_productId].toPath.length; i++){\r\n            require(productStructs[_productId].productOwner == msg.sender);\r\n            productStructs[_productId].productOwner = productStructs[_productId].toPath[i];\r\n        }\r\n        // return productStructs[_productId].productOwner;\r\n    } \r\n\r\n}\r\n\r\ncontract Buyer is Seller{\r\n    function checkOwner(uint _productId) public view returns(address){\r\n        return productStructs[_productId].productOwner;\r\n    }\r\n\r\n    // function checkProduct(uint _productId, string memory _qrCode) public pure returns(bool){\r\n    //     require(productStructs[_productId].qrCode = _qrCode);\r\n    //     return true;\r\n    // }\r\n\r\n    function buyProduct(uint _productId) public {\r\n        // require(checkProduct(_productId));\r\n        productStructs[_productId].toPath.push(msg.sender);\r\n    }\r\n}",
  "sourcePath": "C:\\Users\\nitrr\\OneDrive\\Desktop\\demo_mp\\demo\\contracts\\test.sol",
  "compiler": {
    "name": "solc",
    "version": "0.8.17+commit.8df45f5f.Emscripten.clang"
  },
  "schemaVersion": "3.4.10",
  "updatedAt": "2022-10-28T17:08:16.603Z",
  "devdoc": {
    "kind": "dev",
    "methods": {},
    "version": 1
  },
  "userdoc": {
    "kind": "user",
    "methods": {},
    "version": 1
  }
}